:020000040800F2
:1000000000280020E1130008591200085F120008C0
:10001000651200086B120008711200080000000051
:10002000000000000000000000000000771200083F
:1000300083120008000000008F1200089B120008C5
:10004000291400082914000829140008291400089C
:10005000291400082914000829140008291400088C
:10006000291400082914000829140008291400087C
:10007000291400082914000829140008291400086C
:10008000291400082914000829140008291400085C
:10009000291400082914000829140008291400084C
:1000A000291400082914000829140008291400083C
:1000B000A9120008291400080000000029140008F3
:1000C00029140008000000000000000029140008A6
:1000D0000000000029140008291400080000000096
:1000E0002914000829140008291400080000000041
:1000F0000000000000000000000000000000000000
:0C01000000000000000000005FF808F1A3
:10010C0010B5054C237833B9044B13B10448AFF345
:10011C0000800123237010BD70000020000000003F
:10012C00842A000808B5034B1BB103490348AFF3FD
:10013C00008008BD0000000074000020842A000824
:10014C0080B483B000AF7860094A7B6852F82330E2
:10015C00002B06D0064A7B68002142F823100123AD
:10016C0000E0002318460C37BD4680BC704700BF2A
:10017C008C00002080B483B000AF7860094A7B68A3
:10018C0052F82330002B06D0064A7B68002142F837
:10019C002310012300E0002318460C37BD4680BC19
:1001AC00704700BF9800002080B483B000AF786027
:1001BC00044A7B68012142F8231000BF0C37BD466E
:1001CC0080BC70478C00002080B582B000AF00234B
:1001DC007B608CE04A4A7B6852F8232049497B6853
:1001EC0041F82320484A7B6852F8232044497B6815
:1001FC0041F82320454A7B6832F8133019464448AD
:10020C0001F0FAFB034619463F4A7B6842F823107B
:10021C003C4A7B6852F8232039497B6851F82330DB
:10022C009A4261D1364A7B6852F8232036497B6862
:10023C0051F823309A4257D1364A7B6852F8232022
:10024C0031497B6851F823309A4229D02E4A7B6879
:10025C0052F823202F497B6841F823202A4A7B68D7
:10026C0052F82330002B15D12B4A7B6852F82330DF
:10027C00002B09D1294A7B684FF4967142F8231060
:10028C007868FFF791FF2FE0244A7B68642142F8DD
:10029C00231029E0204A7B68002142F8231023E038
:1002AC001E4A7B6852F823305A1E1C497B6841F861
:1002BC0023201A4A7B6852F82330002B14D1124A9F
:1002CC007B6852F82330002B0ED1134A7B68012136
:1002DC0042F82310114A7B68002142F823100D4A82
:1002EC007B68012142F823107B6801337B607B68BB
:1002FC00022B7FF76FAF00BF00BF0837BD4680BD34
:10030C00180000200C000020240000203C000020DD
:10031C00000C01403000002098000020000000205C
:10032C0080B500AF984B1B68032B00F2A48001A290
:10033C0052F823F0510300086F030008CB030008A8
:10034C002704000801F02EF88F4B01221A608F4B06
:10035C009B684FF47A7202FB03F3184600F044FEDC
:10036C0090E0002000F0AAFF0020FFF7E9FE034612
:10037C00002B09D0844B0C221A6001F013F8844B2B
:10038C000C221A6001F01AF800F06AFD814B1B6810
:10039C00012B72D17C4B02221A607C4B1B687E4A6B
:1003AC00D3607D4BDB687C4A1360784B1B684FF441
:1003BC007A7202FB03F3184600F016FE5DE0012092
:1003CC0000F07CFF0020FFF7BBFE0346002B09D09A
:1003DC006D4B0C221A6000F0E5FF00F0EFFF6C4B48
:1003EC000C221A6000F03CFD6A4B1B68012B46D1B5
:1003FC00654B03221A60654B5B68674AD360664B9A
:10040C00DB68654A1360614B5B684FF47A7202FBE0
:10041C0003F3184600F0E8FD31E0022000F04EFF37
:10042C000020FFF78DFE0346002B09D0564B0C2203
:10043C001A6000F0B7FF00F0C1FF554B0C221A6098
:10044C0000F00EFD534B1B68012B1AD14E4B0122B1
:10045C001A604E4B9B68504AD3604F4BDB684E4A38
:10046C0013604A4B9B684FF47A7202FB03F31846F5
:10047C0000F0BAFD05E000BF04E000BF02E000BFE1
:10048C0000E000BF424B1B68032B74D801A252F84A
:10049C0023F000BFB1040008CF0400080B050008CE
:1004AC004705000800F08AFF394B02221A60374BCF
:1004BC001B684FF47A7202FB03F3184600F0C8FD78
:1004CC0060E0002000F034FF00F0CAFC334B1B68E6
:1004DC00012B52D12E4B02221A602C4B1B682E4A38
:1004EC0093602D4B9B682C4A5360284B1B684FF430
:1004FC007A7202FB03F3184600F0AAFD3DE00120DE
:10050C0000F016FF00F0ACFC244B1B68012B36D11D
:10051C001F4B03221A601D4B5B681F4A93601E4BD6
:10052C009B681D4A5360194B5B684FF47A7202FB4F
:10053C0003F3184600F08CFD21E0022000F0F8FED9
:10054C0000F08EFC154B1B68012B1AD1104B0122AD
:10055C001A600E4B9B68104A93600F4B9B680E4AB7
:10056C0053600A4B9B684FF47A7202FB03F31846F4
:10057C0000F06EFD05E000BF04E000BF02E000BF2C
:10058C0000E000BF00BF80BDA4000020440000209C
:10059C00A80000201C010020500000202C0100208D
:1005AC0080B500AF00F03CFF00F022F800F0A8F896
:1005BC0000F05AF80B4801F09FFE0B4B00221A601A
:1005CC000A4B00221A600A2000F05CFD4FF47A708E
:1005DC0000F072FD00F008F900F086FCFFF7A0FEB9
:1005EC00F8E700BFAC000020A4000020A800002009
:1005FC0080B590B000AF07F11803282200211846EF
:10060C0002F032FA3B1D00221A605A609A60DA60DE
:10061C001A610223BB610123BB621023FB6200231E
:10062C007B6307F11803184601F02EFA0346002BE2
:10063C0001D000F0D3F80F237B600023BB600023B4
:10064C00FB6000233B6100237B613B1D00211846AE
:10065C0001F09CFC0346002B01D000F0BFF800BF5A
:10066C004037BD4680BD000080B586B000AF07F1B5
:10067C00080300221A605A609A60DA603B46002236
:10068C001A605A601D4B4FF080421A601B4B41F6AA
:10069C003F725A60194B00229A60184B0922DA609B
:1006AC00164B00221A61154B00229A61134801F077
:1006BC00D3FD0346002B01D000F090F84FF480538B
:1006CC00BB6007F1080319460C4801F069FF0346AB
:1006DC00002B01D000F082F800233B6000237B60EC
:1006EC003B461946054802F031F90346002B01D070
:1006FC0000F074F800BF1837BD4680BDAC00002078
:10070C0080B586B000AF07F1080300221A605A606A
:10071C009A60DA60284B9B69274A43F00403936183
:10072C00254B9B6903F004037B607B68224B9B6920
:10073C00214A43F0080393611F4B9B6903F00803A4
:10074C003B603B68002247F6FF711C4801F06BF9D7
:10075C00002240F6F8711A4801F065F947F6FF736C
:10076C00BB600123FB6000233B6102237B6107F12B
:10077C0008031946114800F0C3FF0723BB60002390
:10078C00FB6000233B6107F1080319460C4800F09D
:10079C00B7FF40F6F873BB600123FB6000233B619D
:1007AC0002237B6107F108031946054800F0A8FFF6
:1007BC0000BF1837BD4680BD001002400008014044
:1007CC00000C014080B582B000AF786000F08EFC68
:1007DC00FFF7FAFC00BF0837BD4680BD80B400AF00
:1007EC0072B600BFFEE7000080B584B000AF974B37
:1007FC001B680E2B00F056810E2B00F3F3810C2B93
:10080C0003D00D2B00F0A080ECE10A2000F006FCD8
:10081C0000F026FB002000F0B3FB8D4B02225A6047
:10082C008B4B5B688B4A53600020FFF789FC0346B7
:10083C00002B05D10020FFF79DFC0346002B02D0B6
:10084C00824B0E221A600120FFF77AFC0346002B24
:10085C0005D10120FFF78EFC0346002B1BD07C4BEF
:10086C00DB68082B07DD7A4B9B680133784A936071
:10087C00774B0022DA60764B9B68082B06DD744BB5
:10088C0000229A60724B0122DA6004E0704BDB6844
:10089C0001336F4AD3606E4B9B68002B03D06C4BBB
:1008AC009B686C4A93606A4BDB68002B03D0684BE7
:1008BC00DB68684AD3600220FFF742FC0346002B3A
:1008CC0006D10220FFF756FC0346002B00F08C816A
:1008DC005E4B00221A605E4B9B68002B0FD05C4B6A
:1008EC00DB68002B0BD05A4B9A6813469B001344C1
:1008FC005B001A46564BDB681344574A936000233F
:10090C00FB6007E0524AFB68002142F82310FB68A9
:10091C000133FB60FB68032BF4DD4C4B00221A60A7
:10092C004E4B00221A604C4B9B684A4AD360494B91
:10093C00DB68484A1360484B1B68464A9360454B3A
:10094C009B68444A53604FE10A2000F067FB00F0BB
:10095C0029FD00F085FA00F031FD012000F010FBBC
:10096C003B4B04225A603A4B5B683A4A5360002076
:10097C00FFF7E6FB0346002B05D10020FFF7FAFB3F
:10098C000346002B02D0314B00221A600120FFF7E6
:10099C00D7FB0346002B05D10120FFF7EBFB0346E9
:1009AC00002B1BD02A4BDB68082B07DD284B9B68E0
:1009BC000133274A9360264B0022DA60244B9B6854
:1009CC00082B06DD224B00229A60214B0122DA60B3
:1009DC0004E01F4BDB6801331D4AD3601C4B9B6842
:1009EC00002B03D01A4B9B681A4A9360184BDB6898
:1009FC00002B03D0164BDB68164AD3600220FFF79E
:100A0C009FFB0346002B06D10220FFF7B3FB0346E6
:100A1C00002B00F0EB800D4B00221A600C4B9B68F6
:100A2C00002B0FD00A4BDB68002B0BD0084B9A68BD
:100A3C0013469B0013445B001A46054BDB681344BA
:100A4C00054A13600023BB6012E000BFA400002025
:100A5C00F40000205000002044000020A8000020DA
:100A6C00664ABB68002142F82310BB680133BB60A7
:100A7C00BB68032BF4DD624B00221A60614B002231
:100A8C001A60614B9B68614AD360604BDB685F4ABC
:100A9C0013605D4B1B685D4A93605C4B9B685B4AC3
:100AAC005360A3E00A2000F0B9FA00F07BFC00F0E0
:100ABC0085FC022000F064FA504B03225A604F4B25
:100ACC005B68524A53600020FFF73AFB0346002B49
:100ADC0005D10020FFF74EFB0346002B02D0484BFC
:100AEC000D221A600120FFF72BFB0346002B05D1CA
:100AFC000120FFF73FFB0346002B1BD03F4BDB686D
:100B0C00082B07DD3D4B9B6801333C4A93603B4B04
:100B1C000022DA60394B9B68082B06DD374B00222C
:100B2C009A60364B0122DA6004E0344BDB68013307
:100B3C00324AD360314B9B68002B03D02F4B9B6800
:100B4C00324A93602D4BDB68002B03D02B4BDB68B8
:100B5C002E4AD3600220FFF7F3FA0346002B05D18F
:100B6C000220FFF707FB0346002B41D0244B002249
:100B7C001A60224B9B68002B0FD0204BDB68002B9C
:100B8C000BD01E4B9A6813469B0013445B001A460D
:100B9C001A4BDB6813441C4A536000237B6007E04C
:100BAC00164A7B68002142F823107B6801337B6076
:100BBC007B68032BF4DD124B00221A60114B0022D0
:100BCC001A60114B9B68114AD360104BDB680F4ABB
:100BDC0013600D4B1B680D4A93600C4B9B680B4AC2
:100BEC00536005E000BF04E000BF02E000BF00E07E
:100BFC0000BF00BF1037BD4680BD00BFF400002011
:100C0C00A4000020A8000020440000205000002078
:100C1C0080B582B000AF78607B68092B00F29480BD
:100C2C0001A252F823F000BF5D0C0008770C0008FD
:100C3C00910C0008AB0C0008C50C0008DF0C000878
:100C4C00F90C0008130D00082D0D00083B0D0008D1
:100C5C0000224FF47C513E4800F0E5FE01224FF497
:100C6C0080413B4800F0DFFE6EE001224FF4F24180
:100C7C00374800F0D8FE00224FF4C061344800F031
:100C8C00D2FE61E000224FF4B641314800F0CBFEB9
:100C9C0001224FF410512E4800F0C5FE54E0002202
:100CAC004FF49E412A4800F0BEFE01224FF4405101
:100CBC00274800F0B8FE47E001224FF4C851244801
:100CCC0000F0B1FE00224FF4CC41214800F0ABFE05
:100CDC003AE000224FF4DA411D4800F0A4FE012254
:100CEC004FF490511A4800F09EFE2DE000224FF474
:100CFC00FA41174800F097FE01224FF40071144896
:100D0C0000F091FE20E001224FF4F041104800F079
:100D1C008AFE00224FF4E0610D4800F084FE13E0DF
:100D2C0000224FF4FE410A4800F07DFE0CE0002248
:100D3C004FF4DE41064800F076FE01224FF480515C
:100D4C00034800F070FE00BF00BF0837BD4680BDF1
:100D5C000008014080B582B000AF78607B68032B3F
:100D6C0072D801A252F823F0850D0008B90D0008C5
:100D7C00ED0D0008210E000800224021354800F03E
:100D8C0052FE01228021334800F04DFE0122082141
:100D9C00314800F048FE012210212F4800F043FE9C
:100DAC002E4B1B681846FFF733FF4EE00122402103
:100DBC00284800F038FE00228021264800F033FE3F
:100DCC0001220821244800F02EFE01221021224885
:100DDC0000F029FE214B5B681846FFF719FF34E041
:100DEC00012240211B4800F01EFE012280211948DF
:100DFC0000F019FE00220821174800F014FE012211
:100E0C001021154800F00FFE144B9B681846FFF795
:100E1C00FFFE1AE0012240210E4800F004FE0122E0
:100E2C0080210C4800F0FFFD012208210A4800F047
:100E3C00FAFD00221021084800F0F5FD074BDB6895
:100E4C001846FFF7E5FE00E000BF00BF0837BD46BF
:100E5C0080BD00BF00080140000C01405000002084
:100E6C0080B582B000AF1D4B1B68012B31D11C4BE0
:100E7C001B680C2B0BD01A4B1B680D2B07D0184B77
:100E8C001B680E2B03D0164B1B68002B0BD1154B7C
:100E9C000022DA60134BDB68124A9360114B9B689B
:100EAC00104A136011E000237B600BE00D4A7B6855
:100EBC0052F823305A1E0B497B6841F823207B687B
:100ECC0001337B607B68032BF0DD4FF47A7000F00C
:100EDC00F3F800BF0837BD4680BD00BF3C010020C1
:100EEC00A40000205000002080B500AF1F4B1B68F1
:100EFC00012B39D11E4B1B68032B02DD1C4B00222E
:100F0C001A601B4B1B681B4A52F82310184B1868AD
:100F1C00194B83FB01239A10CB17D21A13469B0053
:100F2C0013445B00CA1A154B43F82020104B1B6866
:100F3C00104A52F82330092B0BDD0D4B1B685A1C41
:100F4C000B490A600D4A52F823301846FFF760FE31
:100F5C0007E0074B1B685A1C05490A601846FFF747
:100F6C00F9FEC82000F08EF800BF80BD34010020CF
:100F7C00040100205000002067666666080100200E
:100F8C0080B582B000AF7860154B1B68002B1BD06E
:100F9C007B68022B13D07B68022B17DC7B68002B41
:100FAC0003D07B68012B05D010E009210D4800F01F
:100FBC0052FD0CE024210B4800F04DFD07E01221FE
:100FCC00084800F048FD02E000BF00E000BF4FF40D
:100FDC00FA7000F023F800BF0837BD4680BD00BF93
:100FEC00240100200008014080B483B000AF786079
:100FFC00074B1B687A6892FBF3F3064A1360064BA7
:10100C0000221A6000BF0C37BD4680BC704700BF81
:10101C0060000020180100201C01002080B483B067
:10102C0000AF7860074B1B687A6892FBF3F3064AB3
:10103C001360064B00221A6000BF0C37BD4680BC03
:10104C00704700BF60000020200100202401002018
:10105C0080B483B000AF7860074B1B687A6892FB52
:10106C00F3F3064A1360064B00221A6000BF0C37DC
:10107C00BD4680BC704700BF6000002028010020E6
:10108C002C01002080B483B000AF7860074B1B6844
:10109C007A6892FBF3F3064A1360064B00221A603F
:1010AC0000BF0C37BD4680BC704700BF60000020FD
:1010BC00300100203401002080B483B000AF786090
:1010CC00074B1B687A6892FBF3F3064A1360064BD6
:1010DC0000221A6000BF0C37BD4680BC704700BFB1
:1010EC0060000020380100203C01002080B400AFDB
:1010FC00294B1B68002B0BDD274B1B68013B264A39
:10110C001360254B1B68002B02DC244B01221A6058
:10111C00234B1B68002B0BDD214B1B68013B204A2A
:10112C0013601F4B1B68002B02DC1E4B01221A6044
:10113C001D4B1B68002B0BDD1B4B1B68013B1A4A1C
:10114C001360194B1B68002B02DC184B01221A6030
:10115C00174B1B68002B0BDD154B1B68013B144A0E
:10116C001360134B1B68002B02DC124B01221A601C
:10117C00114B1B68002B0BDD0F4B1B68013B0E4A00
:10118C0013600D4B1B68002B02DC0C4B01221A6008
:10119C0000BFBD4680BC7047180100201C01002018
:1011AC002001002024010020280100202C01002017
:1011BC003001002034010020380100203C010020C7
:1011CC0080B483B000AF0E4B9B690D4A43F0010312
:1011DC0093610B4B9B6903F001037B607B68084BAD
:1011EC00DB69074A43F08053D361054BDB6903F09D
:1011FC0080533B603B6800BF0C37BD4680BC7047DA
:10120C000010024080B584B000AF78607B681B682A
:10121C00B3F1804F13D10C4BDB690B4A43F0010344
:10122C00D361094BDB6903F00103FB60FB6800220F
:10123C0000211C2000F02DFA1C2000F046FA00BF03
:10124C001037BD4680BD00BF0010024080B400AF17
:10125C00FEE780B400AFFEE780B400AFFEE780B4D9
:10126C0000AFFEE780B400AFFEE780B400AF00BF74
:10127C00BD4680BC704780B400AF00BFBD4680BC8B
:10128C00704780B400AF00BFBD4680BC704780B5CE
:10129C0000AF00F00BF900BF80BD000080B500AFBF
:1012AC00024801F075F800BF80BD00BFAC00002003
:1012BC0080B400AF00BFBD4680BC704780B582B023
:1012CC0000AF78607B68022B1FD07B68022B27DC79
:1012DC007B68002B03D07B68012B0BD020E0012214
:1012EC000221124800F09FFB002201210F4800F060
:1012FC009AFB16E0002204210C4800F094FB01221A
:10130C0001210A4800F08FFB0BE000220221074864
:10131C0000F089FB01220421044800F084FB00E06A
:10132C0000BF00BF0837BD4680BD00BF00080140AC
:10133C0080B582B000AF78607B68022B1FD07B68D1
:10134C00022B27DC7B68002B03D07B68012B0BD096
:10135C0020E001221021124800F065FB0022082138
:10136C000F4800F060FB16E0002220210C4800F032
:10137C005AFB012208210A4800F055FB0BE0002221
:10138C001021074800F04FFB01222021044800F0F7
:10139C004AFB00E000BF00BF0837BD4680BD00BF60
:1013AC000008014080B500AF01220721024800F07F
:1013BC003AFB00BF80BD00BF0008014080B500AF04
:1013CC0001223821024800F02EFB00BF80BD00BF77
:1013DC00000801400C480D490D4A002302E0D45886
:1013EC00C4500433C4188C42F9D30A4A0A4C002363
:1013FC0001E013600432A242FBD3FFF759FF01F066
:10140C000FFBFFF7CDF870470000002070000020A4
:10141C00C42A00087000002044010020FEE70000F0
:10142C0080B500AF084B1B68074A43F010031360EC
:10143C00032000F023F90F2000F008F8FFF7C0FE9E
:10144C000023184680BD00BF0020024080B582B04A
:10145C0000AF7860124B1A68124B1B7819464FF488
:10146C007A73B3FBF1F3B2FBF3F3184600F03BF9DC
:10147C000346002B01D001230EE07B680F2B0AD80A
:10148C00002279684FF0FF3000F003F9064A7B68C0
:10149C001360002300E0012318460837BD4680BDC9
:1014AC00640000206C0000206800002080B400AFB5
:1014BC00054B1B781A46054B1B681344034A1360F3
:1014CC0000BFBD4680BC70476C000020400100206E
:1014DC0080B400AF024B1B681846BD4680BC7047F9
:1014EC004001002080B485B000AF78607B6803F0C9
:1014FC000703FB600C4BDB68BB60BA684FF6FF035D
:10150C001340BB60FB681A02BB68134343F0BF6314
:10151C0043F40033BB60044ABB68D36000BF14378C
:10152C00BD4680BC704700BF00ED00E080B400AF4A
:10153C00044BDB681B0A03F007031846BD4680BC4E
:10154C00704700BF00ED00E080B483B000AF0346ED
:10155C00FB7197F90730002B0BDBFB7903F01F02B3
:10156C00064997F907305B09012000FA02F241F8AD
:10157C00232000BF0C37BD4680BC704700E100E063
:10158C0080B483B000AF03463960FB7197F9073024
:10159C00002B0ADB3B68DAB20C4997F907301201D1
:1015AC00D2B20B4483F800230AE03B68DAB2084954
:1015BC00FB7903F00F03043B1201D2B20B441A76F1
:1015CC0000BF0C37BD4680BC704700BF00E100E097
:1015DC0000ED00E080B489B000AFF860B9607A60CB
:1015EC00FB6803F00703FB61FB69C3F10703042BE2
:1015FC0028BF0423BB61FB690433062B02D9FB69AA
:10160C00033B00E000237B614FF0FF32BB6902FA21
:10161C0003F3DA43BB681A407B699A404FF0FF3101
:10162C007B6901FA03F3D9437B680B4013431846DB
:10163C002437BD4680BC704780B582B000AF78605F
:10164C007B68013BB3F1807F01D301230FE00A4A91
:10165C007B68013B53600F214FF0FF30FFF790FF89
:10166C00054B00229A60044B07221A60002318468F
:10167C000837BD4680BD00BF10E000E080B582B0E9
:10168C0000AF78607868FFF72DFF00BF0837BD46C4
:10169C0080BD80B586B000AF0346B9607A60FB733D
:1016AC0000237B61FFF742FF78617A68B96878693B
:1016BC00FFF790FF024697F90F3011461846FFF7D7
:1016CC005FFF00BF1837BD4680BD80B582B000AF4C
:1016DC000346FB7197F907301846FFF735FF00BF3B
:1016EC000837BD4680BD80B582B000AF78607868A1
:1016FC00FFF7A2FF034618460837BD4680BD000021
:10170C0080B48BB000AF7860396000237B6200231B
:10171C003B6261E101227B6A02FA03F3FB613B68E5
:10172C001B68FA691340BB61BA69FB699A4240F0C5
:10173C0050813B685B68974A93425ED0954A9342CE
:10174C0075D8954A934258D0934A93426FD8934A8E
:10175C00934252D0914A934269D8914A93424CD0C9
:10176C008F4A934263D88F4A934246D08D4A934214
:10177C005DD8122B2AD8122B59D801A252F823F07B
:10178C0007180008E1170008F317000835180008BF
:10179C003B1800083B1800083B1800083B180008D1
:1017AC003B1800083B1800083B1800083B180008C1
:1017BC003B1800083B1800083B1800083B180008B1
:1017CC003B180008E9170008FD170008764A9342F9
:1017DC0013D02CE03B68DB683B6229E03B68DB689C
:1017EC0004333B6224E03B68DB6808333B621FE058
:1017FC003B68DB680C333B621AE03B689B68002B50
:10180C0002D104233B6213E03B689B68012B05D19A
:10181C0008233B627B68FA691A6109E008233B6282
:10182C007B68FA695A6103E000233B6200E000BF69
:10183C00BB69FF2B01D87B6801E07B6804337B61BB
:10184C00BB69FF2B02D87B6A9B0002E07B6A083BDA
:10185C009B003B617B691A680F213B6901FA03F31A
:10186C00DB431A40396A3B6901FA03F31A437B697B
:10187C001A603B685B6803F08053002B00F0A98072
:10188C004A4B9B69494A43F001039361474B9B695F
:10189C0003F00103BB60BB68454A7B6A9B080233BB
:1018AC0052F82330FB607B6A03F003039B000F228A
:1018BC0002FA03F3DB43FA681340FB607B683D4A92
:1018CC0093420DD07B683C4A934207D07B683B4ADD
:1018DC00934201D1022304E0032302E0012300E040
:1018EC0000237A6A02F0030292009340FA681343D1
:1018FC00FB602F497B6A9B080233FA6841F823206E
:10190C003B685B6803F48033002B06D02C4B1A68C1
:10191C002B49BB6913430B6006E0294B1A68BB6962
:10192C00DB43274913400B603B685B6803F40033CF
:10193C00002B06D0224B5A682149BB6913434B60DC
:10194C0006E01F4B5A68BB69DB431D4913404B60D3
:10195C003B685B6803F48013002B06D0184B9A6825
:10196C001749BB6913438B6006E0154B9A68BB693A
:10197C00DB43134913408B603B685B6803F4001333
:10198C00002B1FD00E4BDA680D49BB691343CB609B
:10199C001FE000BF000032100000311000002210C8
:1019AC000000211000001210000011100010024065
:1019BC000000014000080140000C014000100140F3
:1019CC00000401400B4BDA68BB69DB430949134047
:1019DC00CB607B6A01337B623B681A687B6A22FAB4
:1019EC0003F3002B7FF496AE00BF00BF2C37BD462F
:1019FC0080BC70470004014080B485B000AF7860B3
:101A0C000B467B807B689A687B881340002B02D046
:101A1C000123FB7301E00023FB73FB7B1846143797
:101A2C00BD4680BC704780B483B000AF78600B4675
:101A3C007B8013467B707B78002B03D07A887B6885
:101A4C001A6103E07B881A047B681A6100BF0C37AB
:101A5C00BD4680BC704780B485B000AF78600B4643
:101A6C007B807B68DB68FB607A88FB6813401A0418
:101A7C00FB68D9437B880B401A437B681A6100BF13
:101A8C001437BD4680BC704780B586B000AF786017
:101A9C007B68002B01D1012372E27B681B6803F089
:101AAC000103002B00F08780924B5B6803F00C0362
:101ABC00042B0CD08F4B5B6803F00C03082B12D15A
:101ACC008C4B5B6803F48033B3F5803F0BD1894BAF
:101ADC001B6803F40033002B6CD07B685B68002B15
:101AEC0068D101234CE27B685B68B3F5803F06D17B
:101AFC00804B1B687F4A43F4803313602EE07B6875
:101B0C005B68002B0CD17B4B1B687A4A23F4803327
:101B1C001360784B1B68774A23F4802313601DE015
:101B2C007B685B68B3F5A02F0CD1724B1B68714AB4
:101B3C0043F4802313606F4B1B686E4A43F480336D
:101B4C0013600BE06B4B1B686A4A23F48033136001
:101B5C00684B1B68674A23F4802313607B685B68BF
:101B6C00002B13D0FFF7B4FC386108E0FFF7B0FC92
:101B7C0002463B69D31A642B01D9032300E25D4B67
:101B8C001B6803F40033002BF0D014E0FFF7A0FC2B
:101B9C00386108E0FFF79CFC02463B69D31A642BC2
:101BAC0001D90323ECE1534B1B6803F40033002BE6
:101BBC00F0D100E000BF7B681B6803F00203002B30
:101BCC0063D04C4B5B6803F00C03002B0BD0494BE0
:101BDC005B6803F00C03082B1CD1464B5B6803F4C9
:101BEC008033002B16D1434B1B6803F00203002BF0
:101BFC0005D07B681B69012B01D00123C0E13D4B53
:101C0C001B6823F0F8027B685B69DB0039491343DE
:101C1C000B603AE07B681B69002B20D0364B01220D
:101C2C001A60FFF755FC386108E0FFF751FC0246DB
:101C3C003B69D31A022B01D90323A1E12D4B1B685D
:101C4C0003F00203002BF0D02A4B1B6823F0F802A0
:101C5C007B685B69DB00274913430B6015E0264B5F
:101C6C0000221A60FFF734FC386108E0FFF730FC03
:101C7C0002463B69D31A022B01D9032380E11D4B89
:101C8C001B6803F00203002BF0D17B681B6803F088
:101C9C000803002B3AD07B689B69002B19D0174B9B
:101CAC0001221A60FFF714FC386108E0FFF710FC02
:101CBC0002463B69D31A022B01D9032360E10D4B79
:101CCC005B6A03F00203002BF0D0012000F0A6FAAF
:101CDC001CE00A4B00221A60FFF7FAFB38610FE098
:101CEC00FFF7F6FB02463B69D31A022B08D90323F4
:101CFC0046E100BF00100240000042428004424214
:101D0C00924B5B6A03F00203002BE9D17B681B68E2
:101D1C0003F00403002B00F0A6800023FB758B4B13
:101D2C00DB6903F08053002B0DD1884BDB69874AAC
:101D3C0043F08053D361854BDB6903F08053BB6068
:101D4C00BB680123FB75824B1B6803F48073002B6B
:101D5C0018D17F4B1B687E4A43F480731360FFF7E6
:101D6C00B7FB386108E0FFF7B3FB02463B69D31AB7
:101D7C00642B01D9032303E1754B1B6803F48073B7
:101D8C00002BF0D07B68DB68012B06D16F4B1B6AF4
:101D9C006E4A43F0010313622DE07B68DB68002B75
:101DAC000CD16A4B1B6A694A23F001031362674B1F
:101DBC001B6A664A23F0040313621CE07B68DB6831
:101DCC00052B0CD1614B1B6A604A43F00403136270
:101DDC005E4B1B6A5D4A43F0010313620BE05B4BE5
:101DEC001B6A5A4A23F001031362584B1B6A574A69
:101DFC0023F0040313627B68DB68002B15D0FFF71C
:101E0C0067FB38610AE0FFF763FB02463B69D31AB4
:101E1C0041F28832934201D90323B1E04B4B1B6A48
:101E2C0003F00203002BEED014E0FFF751FB3861F6
:101E3C000AE0FFF74DFB02463B69D31A41F28832A8
:101E4C00934201D903239BE0404B1B6A03F002032E
:101E5C00002BEED1FB7D012B05D13C4BDB693B4AC2
:101E6C0023F08053D3617B68DB69002B00F0878003
:101E7C00364B5B6803F00C03082B61D07B68DB6985
:101E8C00022B46D1334B00221A60FFF721FB38613D
:101E9C0008E0FFF71DFB02463B69D31A022B01D960
:101EAC0003236DE0294B1B6803F00073002BF0D16A
:101EBC007B681B6AB3F5803F08D1244B5B6823F425
:101ECC0000327B689B68214913434B601F4B5B6856
:101EDC0023F474127B68196A7B685B6A0B431B4999
:101EEC0013434B601B4B01221A60FFF7F1FA386168
:101EFC0008E0FFF7EDFA02463B69D31A022B01D931
:101F0C0003233DE0114B1B6803F00073002BF0D052
:101F1C0035E0104B00221A60FFF7DAFA386108E05E
:101F2C00FFF7D6FA02463B69D31A022B01D90323D9
:101F3C0026E0064B1B6803F00073002BF0D11EE06B
:101F4C007B68DB69012B07D1012319E000100240EB
:101F5C0000700040600042420B4B5B68FB60FB680A
:101F6C0003F480327B681B6A9A4206D1FB6803F447
:101F7C0070127B685B6A9A4201D0012300E0002357
:101F8C0018461837BD4680BD0010024080B584B09D
:101F9C0000AF786039607B68002B01D10123D0E061
:101FAC006A4B1B6803F007033A689A4210D9674BD7
:101FBC001B6823F0070265493B6813430B60634BB6
:101FCC001B6803F007033A689A4201D00123B8E07A
:101FDC007B681B6803F00203002B20D07B681B6816
:101FEC0003F00403002B05D0594B5B68584A43F4AB
:101FFC00E06353607B681B6803F00803002B05D07B
:10200C00534B5B68524A43F460535360504B5B68CC
:10201C0023F0F0027B689B684D4913434B607B684F
:10202C001B6803F00103002B40D07B685B68012B1D
:10203C0007D1474B1B6803F40033002B15D1012348
:10204C007FE07B685B68022B07D1414B1B6803F078
:10205C000073002B09D1012373E03D4B1B6803F087
:10206C000203002B01D101236BE0394B5B6823F099
:10207C0003027B685B68364913434B60FFF728FA11
:10208C00F8600AE0FFF724FA0246FB68D31A41F223
:10209C008832934201D9032353E02D4B5B6803F044
:1020AC000C027B685B689B009A42EBD1274B1B6848
:1020BC0003F007033A689A4210D2244B1B6823F0B2
:1020CC00070222493B6813430B60204B1B6803F04B
:1020DC0007033A689A4201D0012332E07B681B68FF
:1020EC0003F00403002B08D0194B5B6823F4E06267
:1020FC007B68DB68164913434B607B681B6803F0F5
:10210C000803002B09D0124B5B6823F460527B68E8
:10211C001B69DB000E4913434B6000F021F80246AB
:10212C000B4B5B681B0903F00F030A49CB5C22FACB
:10213C0003F3094A1360094B1B681846FFF786F92D
:10214C00002318461037BD4680BD00BF002002405A
:10215C0000100240AC2A0008640000206800002037
:10216C0090B48AB000AF294B3C1D0FCB84E80F0014
:10217C0040F201233B800023FB610023BB61002361
:10218C007B6200237B6100233B62214B5B68FB611C
:10219C00FB6903F00C03042B02D0082B03D02BE0BB
:1021AC001C4B3B622BE0FB699B0C03F00F032833A9
:1021BC003B4413F8243C7B61FB6903F48033002B14
:1021CC0012D0134B5B685B0C03F0010328333B44C8
:1021DC0013F8283CBB617B690E4A03FB02F2BB6916
:1021EC00B2FBF3F37B6204E07B690B4A02FB03F363
:1021FC007B627B6A3B6202E0064B3B6200BF3B6A40
:10220C0018462837BD4690BC704700BF9C2A000872
:10221C000010024000127A0000093D0080B485B025
:10222C0000AF78600A4B1B680A4AA2FB03235B0AC7
:10223C007A6802FB03F3FB6000BFFB685A1EFA606E
:10224C00002BF9D100BF00BF1437BD4680BC7047CE
:10225C0064000020D34D621080B582B000AF78606E
:10226C007B68002B01D1012341E07B6893F83D3062
:10227C00DBB2002B06D17B68002283F83C20786807
:10228C00FEF7C0FF7B68022283F83D207B681A684A
:10229C007B6804331946104600F06AFA7B68012209
:1022AC0083F846207B68012283F83E207B6801225C
:1022BC0083F83F207B68012283F840207B68012251
:1022CC0083F841207B68012283F842207B6801223D
:1022DC0083F843207B68012283F844207B68012229
:1022EC0083F845207B68012283F83D2000231846A3
:1022FC000837BD4680BD000080B485B000AF786063
:10230C007B6893F83D30DBB2012B01D0012335E023
:10231C007B68022283F83D207B681B68DA687B6847
:10232C001B6842F00102DA607B681B68164A934214
:10233C0009D07B681B68B3F1804F04D07B681B68A5
:10234C00124A934211D17B681B689B6803F0070308
:10235C00FB60FB68062B10D07B681B681A687B68D7
:10236C001B6842F001021A6007E07B681B681A6860
:10237C007B681B6842F001021A6000231846143770
:10238C00BD4680BC704700BF002C014000040040DB
:10239C0080B582B000AF78607B681B681B6903F066
:1023AC000203022B22D17B681B68DB6803F002035B
:1023BC00022B1BD17B681B686FF002021A617B68D1
:1023CC0001221A777B681B689B6903F00303002BBF
:1023DC0003D0786800F0B1F905E0786800F0A4F952
:1023EC00786800F0B3F97B6800221A777B681B6869
:1023FC001B6903F00403042B22D17B681B68DB6888
:10240C0003F00403042B1BD17B681B686FF00402E0
:10241C001A617B6802221A777B681B689B6903F43C
:10242C004073002B03D0786800F087F905E07868DA
:10243C0000F07AF9786800F089F97B6800221A7745
:10244C007B681B681B6903F00803082B22D17B688F
:10245C001B68DB6803F00803082B1BD17B681B6827
:10246C006FF008021A617B6804221A777B681B687C
:10247C00DB6903F00303002B03D0786800F05DF9EF
:10248C0005E0786800F050F9786800F05FF97B6837
:10249C0000221A777B681B681B6903F01003102B52
:1024AC0022D17B681B68DB6803F01003102B1BD157
:1024BC007B681B686FF010021A617B6808221A7720
:1024CC007B681B68DB6903F44073002B03D07868CE
:1024DC0000F033F905E0786800F026F9786800F030
:1024EC0035F97B6800221A777B681B681B6903F03F
:1024FC000103012B0ED17B681B68DB6803F0010321
:10250C00012B07D17B681B686FF001021A61786898
:10251C00FEF758F97B681B681B6903F08003802B5E
:10252C000ED17B681B68DB6803F08003802B07D11E
:10253C007B681B686FF080021A61786800F067FA9C
:10254C007B681B681B6903F04003402B0ED17B6832
:10255C001B68DB6803F04003402B07D17B681B68CA
:10256C006FF040021A61786800F0F9F87B681B681C
:10257C001B6903F02003202B0ED17B681B68DB68E2
:10258C0003F02003202B07D17B681B686FF020021F
:10259C001A61786800F032FA00BF0837BD4680BD7A
:1025AC0080B584B000AF786039607B6893F83C30BC
:1025BC00012B01D10223B3E07B68012283F83C207C
:1025CC007B68022283F83D207B681B689B68FB605C
:1025DC00FB6823F07703FB60FB6823F47F43FB600D
:1025EC007B681B68FA689A603B681B68B3F5005FF0
:1025FC003ED0B3F5005F00F28780B3F5805F00F04A
:10260C008580B3F5805F7FD8702B1AD0702B7BD868
:10261C00602B50D0602B77D8502B3CD0502B73D8DC
:10262C00402B58D0402B6FD8302B64D0302B6BD82C
:10263C00202B60D0202B67D8002B5CD0102B5AD0CD
:10264C0062E07B6818683B6899683B685A683B682D
:10265C00DB6800F05CF97B681B689B68FB60FB68BF
:10266C0043F07703FB607B681B68FA689A604EE066
:10267C007B6818683B6899683B685A683B68DB68FC
:10268C0000F045F97B681B689A687B681B6842F40C
:10269C0080429A603BE07B6818683B6859683B68ED
:1026AC00DB681A4600F0BCF87B681B6850211846A2
:1026BC0000F013F92BE07B6818683B6859683B689D
:1026CC00DB681A4600F0DAF87B681B686021184654
:1026DC0000F003F91BE07B6818683B6859683B689D
:1026EC00DB681A4600F09CF87B681B684021184692
:1026FC0000F0F3F80BE07B681A683B681B6819461E
:10270C00104600F0EAF802E000BF00E000BF7B6872
:10271C00012283F83D207B68002283F83C200023B3
:10272C0018461037BD4680BD80B483B000AF7860CA
:10273C0000BF0C37BD4680BC704780B483B000AF7F
:10274C00786000BF0C37BD4680BC704780B483B046
:10275C0000AF786000BF0C37BD4680BC704780B4BA
:10276C0083B000AF786000BF0C37BD4680BC7047AB
:10277C0080B485B000AF786039607B681B68FB6003
:10278C007B68254A934207D07B68B3F1804F03D016
:10279C007B68224A934208D1FB6823F07003FB60EC
:1027AC003B685B68FA681343FB607B681A4A934288
:1027BC0007D07B68B3F1804F03D07B68174A9342F4
:1027CC0008D1FB6823F44073FB603B68DB68FA6854
:1027DC001343FB60FB6823F080023B685B69134387
:1027EC00FB607B68FA681A603B689A687B68DA62FF
:1027FC003B681A687B689A627B68074A934203D1EC
:10280C003B681A697B681A637B6801225A6100BFB6
:10281C001437BD4680BC7047002C014000040040BA
:10282C0080B487B000AFF860B9607A60FB681B6A4F
:10283C007B61FB681B6A23F00102FB681A62FB6870
:10284C009B693B613B6923F0F0033B617B681B0197
:10285C003A6913433B617B6923F00A037B617A6914
:10286C00BB6813437B61FB683A699A61FB687A69C0
:10287C001A6200BF1C37BD4680BC704780B487B05D
:10288C0000AFF860B9607A60FB681B6A23F0100235
:10289C00FB681A62FB689B697B61FB681B6A3B6186
:1028AC007B6923F470437B617B681B037A69134358
:1028BC007B613B6923F0A0033B61BB681B013A6958
:1028CC0013433B61FB687A699A61FB683A691A6247
:1028DC0000BF1C37BD4680BC704780B485B000AFCC
:1028EC00786039607B689B68FB60FB6823F0700341
:1028FC00FB603A68FB68134343F00703FB607B689B
:10290C00FA689A6000BF1437BD4680BC704780B42B
:10291C0087B000AFF860B9607A603B60FB689B6879
:10292C007B617B6923F47F437B613B681A027B6884
:10293C001A43BB6813437A6913437B61FB687A695A
:10294C009A6000BF1C37BD4680BC704780B485B010
:10295C0000AF786039607B6893F83C30012B01D173
:10296C00022341E07B68012283F83C207B68022231
:10297C0083F83D207B681B685B68FB607B681B6889
:10298C009B68BB60FB6823F07003FB603B681B68B3
:10299C00FA681343FB607B681B68FA685A607B68B3
:1029AC001B68144A934209D07B681B68B3F1804FB3
:1029BC0004D07B681B68104A93420CD1BB6823F08F
:1029CC008003BB603B685B68BA681343BB607B6881
:1029DC001B68BA689A607B68012283F83D207B688B
:1029EC00002283F83C20002318461437BD4680BCD7
:1029FC00704700BF002C01400004004080B483B03D
:102A0C0000AF786000BF0C37BD4680BC704780B407
:102A1C0083B000AF786000BF0C37BD4680BC7047F8
:102A2C0070B500260C4D0D4C641BA410A64209D1A8
:102A3C0000F022F800260A4D0A4C641BA410A64292
:102A4C0005D170BD55F8043B98470136EEE755F8B3
:102A5C00043B98470136F2E7BC2A0008BC2A000860
:102A6C00BC2A0008C02A000803460244934200D145
:102A7C00704703F8011BF9E7F8B500BFF8BC08BCB8
:102A8C009E467047F8B500BFF8BC08BC9E46704720
:102A9C0002030405060708090A0B0C0D0E0F101093
:102AAC0000000000000000000102030406070809F2
:042ABC0031010008DC
:042AC0000D010008FC
:102AC4002C0100002C0100002C010000010000007A
:102AD40001000000010000000100000001000000EE
:102AE40001000000010000000100000001000000DE
:102AF40001000000010000000100000001000200CC
:102B040004000000030000000200000005000000B3
:102B140005000000030000000300000005000000A1
:102B24000A0000000024F40010000000010000006E
:04000005080013E1FB
:00000001FF
